:08023D00022E0000022C00005B
:0E031000D2AFD2A9438901758CFC758A662292
:1002FF001203101202027B007A00792412000E8082
:01030F00F2FB
:03000B000201A946
:1001A900C0E0C0F0C083C082C0D075D000C000C01C
:0D01B90001C002C003C004C005C006C0079D
:1001C600758CFC758A66052DE52D7002052C640A72
:1001D600452C7009120272752C00752D00C28DD245
:0101E6008C8C
:1001E700D007D006D005D004D003D002D001D0006C
:0B01F700D0D0D082D083D0F0D0E03216
:1002450011083F065B4F666D7D077F6F777C395ED2
:0F0255007971000A19BF86DBCFE6EDFD87FFEF59
:06000E008B308A318932BB
:10001400E4F533E533B40800504D900025F8282862
:100024007302003D02004102004502004902004DF6
:1000340002005502005D020065D2A4800ED2A480A5
:1000440012D2A48016D2A4801AC2A4D2A3D2A280AF
:1000540016C2A4D2A3C2A2800EC2A4C2A3D2A280FA
:1000640006C2A4C2A3C2A2E5336401600BE53364F3
:10007400036005E533B40513AB30AA31A9328533E7
:100084008275830012029F24198011AB30AA31A912
:100094003285338275830012029F2408F8E6F580C6
:1000A4007F647E0012031EE4F5800533E533C394B8
:0600B400085003020017D2
:0100BA002223
:1002EA008F32AF321532EF600BB2A57F327E001229
:0502FA00031E80EE224E
:1001470030B10930B00630B20320B3447F647E007B
:1001570012031E30B10930B00630B20320B323209A
:10016700B105753101801620B005753102800E206A
:10017700B205753103800620B3037531047FC812B9
:1001870002EA30B1FD30B0FA30B2F720B31180F295
:1001970030B10C30B00930B20630B303E4F531AFFB
:0101A7003126
:0101A8002234
:0D026400082400000000000000000123003D
:10027200052B7F07EF64026003BF040B74242FF881
:10028200E664067015800874242FF8E6B40A0B742D
:0C029200232FF80674242FF8E4F6DFD8C0
:01029E00223D
:10020200120147EF64017032E5237007C28DD28C70
:10021200052322E523B40107C28DC28C052322E502
:0402220023B40216E9
:10022600E4F53074242530F8E4F6C28D0530E53067
:06023600B408F0E4F5231A
:01023C00229F
:090329007B007A00792402000E29
:0B031E00EF1FAC0670011E4C70F622B1
:1002CC00D3EF9400EE940040147D6E7C00ED1D7015
:0D02DC00011CED4C70F7EF1F70E61E80E373
:0102E90022F2
:030000000200BB40
:0C00BB00787FE4F6D8FD75813302010265
:10029F00BB010CE58229F582E5833AF583E0225014
:1002AF0006E92582F8E622BBFE06E92582F8E2225E
:0D02BF00E58229F582E5833AF583E4932278
:1000C7000202FFE493A3F8E493A34003F68001F24E
:1000D70008DFF48029E493A3F85407240CC8C3333A
:1000E700C4540F4420C8834004F456800146F6DF09
:1000F700E4800B010204081020408090023DE47E5A
:10010700019360BCA3FF543F30E509541FFEE493FD
:10011700A360010ECF54C025E060A840B8E493A3C4
:10012700FAE493A3F8E493A3C8C582C8CAC583CAEF
:10013700F0A3C8C582C8CAC583CADFE9DEE780BEA7
:01027100008C
:00000001FF
