:0A032700013600013500023300002A
:0E040A00D2AFD2A9438901758CFC758A662297
:1003E800E4FFFE74232EF8E660027F010EBE08F3D8
:0103F80022E2
:1003F90012040A1200BB7B007A00792312000E80D6
:01040900F200
:1000BB00120289EF64017036E5357007C28DD28C60
:1000CB00053522E535B40107C28DC28C053522E515
:0800DB003564026003020161BB
:1000E300F52D7423252DF8E4F6C28D052DE52DB4E9
:0500F30008F0E4F53502
:1000F80022BF020DE53670047E0180027E008E3636
:0601080022EF64037053B6
:10010E00F52DF52EB2A0E52DC394085046120289A6
:10011E008F2EE52EB40302052DE52E64047029748E
:10012E0023252DF806E52D64026005E52DB4040D9A
:10013E007423252DF8E6B4060FE4F6800B74232500
:10014E002DF8E6B40A02E4F67B007A007923120059
:03015E000E80B35D
:01016100227B
:03000B000201628D
:10016200C0E0C0F0C083C082C0D075D000C000C063
:0D01720001C002C003C004C005C006C007E4
:10017F00758CFC758A660534E53470020533640AA4
:10018F0045337019E536700512035B800AE536B406
:10019F0001057F071202EB7533007534001203E877
:0901AF00EF7030E5366401702A9E
:1001B800F52B7F881203D37FC87E001203B57F8892
:1001C8001203D37FF47E011203B5052BE52BC394EC
:0A01D8000340DFC28DC28C753500B4
:1001E200D007D006D005D004D003D002D001D00071
:0B01F200D0D0D082D083D0F0D0E0321B
:1003310011083F065B4F666D7D077F6F777C395EE5
:0F0341007971000A19BF86DBCFE6EDFD87FFEF6C
:06000E008B2F8A308931BE
:10001400E4F532E532B40800504D900025F8282864
:100024007302003D02004102004502004902004DF6
:1000340002005502005D020065D2A4800ED2A480A5
:1000440012D2A48016D2A4801AC2A4D2A3D2A280AF
:1000540016C2A4D2A3C2A2800EC2A4C2A3D2A280FA
:1000640006C2A4C2A3C2A2E5326401600BE53264F5
:10007400036005E532B40513AB2FAA30A9318532EC
:100084008275830012038824198011AB2FAA30A92A
:10009400318532827583001203882408F8E6F580DE
:1000A4007F647E00120418E4F5800532E532C394BF
:0600B400085003020017D2
:0100BA002223
:1003D3008F30AF301530EF600BB2A57F327E001245
:0503E300041880EE2269
:1002890030B10930B00630B20320B3447F647E0038
:1002990012041830B10930B00630B20320B323205C
:1002A900B105752F01801620B005752F02800E202B
:1002B900B205752F03800620B303752F047FC8127A
:1002C90003D330B1FD30B0FA30B2F720B31180F268
:1002D90030B10C30B00930B20630B303E4F52FAFBA
:0102E9002FE5
:0102EA0022F1
:0A0350000823000000000000000078
:10035B00052A7F07EF64026003BF040B74232FF899
:10036B00E664067015800874232FF8E6B40A0B7444
:0C037B00222FF80674232FF8E4F6DFD8D8
:010387002253
:1002EB001537A837A607A837E6FF2423F8E67022B0
:1002FB00EF14FF1202EBA837E6FF64026004EFB4C1
:10030B00040874232FF87605800F74232FF87609D1
:0C031B008007A837E62423F816053722D7
:0B041800EF1FAC0670011E4C70F622B6
:1003B500D3EF9400EE940040147D6E7C00ED1D702B
:0D03C500011CED4C70F7EF1F70E61E80E389
:0103D2002208
:030000000201FDFD
:0C01FD00787FE4F6D8FD758137020244DB
:10038800BB010CE58229F582E5833AF583E022502A
:1003980006E92582F8E622BBFE06E92582F8E22274
:0D03A800E58229F582E5833AF583E493228E
:100209000203F9E493A3F8E493A34003F68001F20F
:1002190008DFF48029E493A3F85407240CC8C333F6
:10022900C4540F4420C8834004F456800146F6DFC5
:10023900E4800B0102040810204080900327E47E2B
:10024900019360BCA3FF543F30E509541FFEE493BA
:10025900A360010ECF54C025E060A840B8E493A381
:10026900FAE493A3F8E493A3C8C582C8CAC583CAAC
:10027900F0A3C8C582C8CAC583CADFE9DEE780BE64
:01035A0000A2
:00000001FF
