:0300DB0001080019
:0700C900F4F5A07F207E4E3C
:0B00D000EF1FAC0670011E4C70F62202
:10008F00E4F508AF08A8077401088002C333D8FC51
:10009F001200C90508E508C3940840E7750808E58C
:1000AF0008D3940040DAAF08A8077401088002C390
:0A00BF0033D8FC1200C9150880E5D3
:03000000020003F8
:0C000300787FE4F6D8FD75810802004A01
:10000F0002008FE493A3F8E493A34003F68001F278
:10001F0008DFF48029E493A3F85407240CC8C333F2
:10002F00C4540F4420C8834004F456800146F6DFC1
:10003F00E4800B01020408102040809000DBE47E76
:10004F00019360BCA3FF543F30E509541FFEE493B6
:10005F00A360010ECF54C025E060A840B8E493A37D
:10006F00FAE493A3F8E493A3C8C582C8CAC583CAA8
:10007F00F0A3C8C582C8CAC583CADFE9DEE780BE60
:0100DE000021
:00000001FF
