:1002110008250000000000000000022D000002235C
:020221000000DB
:0E02CA00D2AFD2A9438901758CFC758A6622D9
:0902E300D2A8D2AAD288D28A2244
:100270007F07EF64026003BF040B74252FF8E66468
:10028000067015800874252FF8E6B40A0B74242F25
:0A029000F80674252FF8E4F6DFD815
:01029A002241
:1002B9001202E31202CA7B007A00792512000E802D
:0102C900F53F
:03000B000201DA15
:0B01DA00C0E0C0D075D000C000C0071E
:1001E500758CFC758A660524E52470020523640A6E
:1001F5004523700B052C120270752300752400C26F
:030205008DD28C0B
:09020800D007D000D0D0D0E032C4
:030003000200BB3D
:1000BB00C0E0C0F0C083C082C0D075D000C000C00B
:1000CB0001C002C003C004C005C006C0077FE87EA4
:1000DB00031202D8E5B06050E52E452D7010C28D8D
:1000EB00D28C052EE52E7002052DC289803AE52EA5
:1000FB006401452D7010C28DC28C052EE52E700249
:0E010B00052DC2898022E52E6402452D701A52
:10011900F52F7425252FF87600C28D052FE52FB40C
:0A01290008F0752D00752E00C28944
:10013300D007D006D005D004D003D002D001D00020
:0B014300D0D0D082D083D0F0D0E032CA
:1002230011083F065B4F666D7D077F6F777C395EF4
:0F0233007971000A19BF86DBCFE6EDFD87FFEF7B
:06000E008B308A318932BB
:10001400E4F533E533B40800504D900025F8282862
:100024007302003D02004102004502004902004DF6
:1000340002005502005D020065D2A4800ED2A480A5
:1000440012D2A48016D2A4801AC2A4D2A3D2A280AF
:1000540016C2A4D2A3C2A2800EC2A4C2A3D2A280FA
:1000640006C2A4C2A3C2A2E5336401600BE53364F3
:10007400036005E533B40513AB30AA31A9328533E7
:100084008275830012024324198011AB30AA31A96E
:10009400328533827583001202432408F8E6F58022
:1000A4007F647E001202D8E4F5800533E533C394FF
:0600B400085003020017D2
:0100BA002223
:0B02D800EF1FAC0670011E4C70F622F8
:10029B00D3EF9400EE940040147D6E7C00ED1D7046
:0D02AB00011CED4C70F7EF1F70E61E80E3A4
:0102B8002223
:0300000002014EAC
:0C014E00787FE4F6D8FD7581330201953E
:10024300BB010CE58229F582E5833AF583E0225070
:1002530006E92582F8E622BBFE06E92582F8E222BA
:0D026300E58229F582E5833AF583E49322D4
:10015A000202B9E493A3F8E493A34003F68001F200
:10016A0008DFF48029E493A3F85407240CC8C333A6
:10017A00C4540F4420C8834004F456800146F6DF75
:10018A00E4800B0102040810204080900211E47EF2
:10019A00019360BCA3FF543F30E509541FFEE4936A
:1001AA00A360010ECF54C025E060A840B8E493A331
:1001BA00FAE493A3F8E493A3C8C582C8CAC583CA5C
:1001CA00F0A3C8C582C8CAC583CADFE9DEE780BE14
:0102420000BB
:00000001FF
