:0C0261000227000002250000022300001C
:0E030100D2AFD2A9438901758CFC758A6622A1
:09031A00D2A8D2AAD288D28A220C
:1002F00012030112031A7B007A00792512000E8086
:01030000F507
:030003000200B642
:1000B600C0E0C0F0C083C082C0D075D000C000C010
:1000C60001C002C003C004C005C006C0077FE87EA9
:1000D6000312030F7FC81202DBE5B06050E5284526
:1000E600277010C28DD28C0528E52870020527C21C
:1000F60089803AE528640145277010C28DC28C05B7
:1001060028E52870020527C2898022E52864024571
:0301160027701A35
:10011900F52974252529F87600C28D0529E529B424
:0A01290002F0752700752800C28956
:10013300D007D006D005D004D003D002D001D00020
:0B014300D0D0D082D083D0F0D0E032CA
:03000B00020226C8
:04022600C0E0C0D0A4
:10022A00758CFC758A660524E524700205236464CE
:10023A004523701A0526E526B40A0D0525752600FC
:10024A00E525B40A03752500752300752400C28DBF
:02025A00D28C44
:05025C00D0D0D0E0321B
:10026D0011083F065B4F666D7D077F6F777C395EAA
:0F027D007971000A19BF86DBCFE6EDFD87FFEF31
:06000E008B2B8A2C892DCA
:10001400E4F52EE52EB40800504D900025F828286C
:100024007302003D02004102004502004902004DF6
:1000340002005502005D020065D2A4800ED2A480A5
:1000440012D2A48016D2A4801AC2A4D2A3D2A280AF
:1000540016C2A4D2A3C2A2800EC2A4C2A3D2A280FA
:1000640006C2A4C2A3C2A2E52E7012AB2BAA2CA96D
:100074002D852E82F58312029024198015E52EB465
:100084000116AB2BAA2CA92DF582758300120290C0
:100094002408F8E6F5808003E4F5807F647E00128E
:1000A400030FE4F580052EE52EC3940850030200E7
:0100B4001734
:0100B5002228
:1002DB008F2AAF2A152AEF600BB2A57F327E001250
:0502EB00030F80EE226C
:03028C00012F013E
:1001DA00EF6003752F01E52F6401702E30B10930ED
:1001EA00B00630B20320B3227FE87E0312030FE485
:1001FA00F52F20B1037F012220B0037F022220B213
:10020A00037F032220B3127F042230B10C30B009DD
:0B021A0030B20630B303752F017F00E7
:0102250022B6
:0B030F00EF1FAC0670011E4C70F622C0
:1002BD00D3EF9400EE940040147D6E7C00ED1D7024
:0D02CD00011CED4C70F7EF1F70E61E80E382
:0102DA002201
:0300000002014EAC
:0C014E00787FE4F6D8FD75812F02019542
:10029000BB010CE58229F582E5833AF583E0225023
:1002A00006E92582F8E622BBFE06E92582F8E2226D
:0D02B000E58229F582E5833AF583E4932287
:10015A000202F0E493A3F8E493A34003F68001F2C9
:10016A0008DFF48029E493A3F85407240CC8C333A6
:10017A00C4540F4420C8834004F456800146F6DF75
:10018A00E4800B0102040810204080900261E47EA2
:10019A00019360BCA3FF543F30E509541FFEE4936A
:1001AA00A360010ECF54C025E060A840B8E493A331
:1001BA00FAE493A3F8E493A3C8C582C8CAC583CA5C
:1001CA00F0A3C8C582C8CAC583CADFE9DEE780BE14
:01028F00006E
:00000001FF
